:020000040800F2
:10000000C0610020310300086D260008451E00086D
:1000100089240008E10C0008214A000800000000C3
:10002000000000000000000000000000790200084D
:100030001D12000800000000CD020008CD390008A4
:100040004B0300084B0300084B0300084B03000858
:100050004B0300084B0300084B0300084B03000848
:100060004B0300084B0300084B0300084B03000838
:100070004B0300084B0300084B0300084B03000828
:100080004B0300084B0300084B0300084B03000818
:10009000B10E00084B0300084B0300084B03000897
:1000A0004B030008493E00084B030008A13A000832
:1000B000593E0008693E00087D3E00084B030008D9
:1000C0004B0300084B0300084B0300084B030008D8
:1000D0004B0300086D4400088D450008C147000827
:1000E0004B0300084B0300084B0300084B030008B8
:1000F0004B0300084B0300084B0300084B030008A8
:100100004B0300084B030008913E00084B03000816
:100110004B030008794300084B0300084B03000819
:100120004B0300084B0300084B0300084B03000877
:100130004B0300084B0300084B0300084B03000867
:100140004B0300084B0300084B0300084B03000857
:100150004B0300084B0300084B0300084B03000847
:100160004B0300084B0300084B0300084B03000837
:100170004B0300084B0300084B0300084B03000827
:100180004B0300084B03000800F002F800F064F88D
:100190000AA090E8000C82448344AAF10107DA45E2
:1001A00001D100F059F8AFF2090EBAE80F0013F0D0
:1001B000010F18BFFB1A43F001031847BCBD000034
:1001C000DCBD00000A444FF0000C10F8013B13F0B6
:1001D000070408BF10F8014B1D1108BF10F8015BA0
:1001E000641E05D010F8016B641E01F8016BF9D193
:1001F00013F0080F1EBF10F8014BAD1C0C1B09D1EA
:100200006D1E58BF01F801CBFAD505E014F8016B5B
:1002100001F8016B6D1EF9D59142D6D370470000ED
:100220000023002400250026103A28BF78C1FBD8FF
:10023000520728BF30C148BF0B607047642900F0E7
:100240000381732900F03E82002070471FB50AF039
:1002500094FA1FBD10B510BD00F0B0FA1146FFF7BB
:10026000F5FF06F0EBFD00F0CEFA03B4FFF7F2FF66
:1002700003BC06F021F900002A4B19680868B0E8B1
:10028000F04F80F30988BFF36F8F4FF0000080F3C9
:10029000118870470000000006480068006880F37D
:1002A000088862B661B6BFF34F8FBFF36F8F00DF70
:1002B00000BF00BF08ED00E0DFF80C00016841F46A
:1002C00070010160704700BF88ED00E0EFF3098026
:1002D000BFF36F8F134B1A681EF0100F08BF20ED8D
:1002E000108A20E9F04F106008B44FF0500080F3FE
:1002F0001188BFF34F8FBFF36F8F08F0BFFD4FF032
:10030000000080F3118808BC19680868B0E8F04F55
:100310001EF0100F08BFB0EC108A80F30988BFF3FD
:100320006F8F7047D0000020EFF30580704700000A
:100330000948804709480047FEE7FEE7FEE7FEE779
:10034000FEE7FEE7FEE7FEE7FEE7FEE704480549B5
:10035000054A064B70470000E13900088901000892
:10036000C05B0020C0610020C05D0020C05D002097
:10037000704700000FB4044910B503AA029800F0BA
:10038000A5F910BC5DF814FBBC0000202DE9F0417C
:100390000E460446002020622046E168884730B3BC
:1003A000252805D0D4E901219047206A401CF2E7B6
:1003B000E168204600278847050018D0A5F14100D4
:1003C000192802D820354FF40067324629462046C6
:1003D0002760FFF733FF40B1012804D0F61D26F057
:1003E00007060836D8E7361DD6E72846DAE7206A3A
:1003F000BDE8F08170B50C460546012A05D0287885
:10040000800600D5EA69002302E0012305E05B1CB9
:10041000934202D2E05C0028F9D1A869E618C01A1C
:10042000A861286A184428622846AFF3008004E0D7
:10043000D5E9012114F8010B9047B442F8D32846BE
:10044000AFF3008070BD00002DE9F04106460024A6
:1004500010687529314616A510D0AFF3008000282A
:1004600002DA404213A507E031688A0701D512A5D8
:1004700002E0490704D511A5012401E0AFF3008093
:1004800000210A2206F1240709E0B0FBF2FCB0FBD0
:10049000F2F302FB1C00303078541846491C002847
:1004A000F3D123462A463046BDE8F04100F086B835
:1004B000000000002D0000002B00000020000000C4
:1004C000032A40F2308010F0030C00F0158011F880
:1004D000013BBCF1020F624498BF11F801CB00F858
:1004E000013B38BF11F8013BA2F1040298BF00F8AC
:1004F00001CB38BF00F8013B11F0030300F0F88096
:10050000083AC0F0088051F8043B083A51F804CB8F
:10051000A0E80810F5E7121D5CBF51F8043B40F855
:10052000043BAFF30080D20724BF11F8013B11F860
:1005300001CB48BF11F8012B24BF00F8013B00F8A4
:1005400001CB48BF00F8012B704702F0FF0343EADC
:10055000032242EA024200F002B84FF000020429EE
:10056000C0F0128010F0030C00F0F680CCF1040C07
:10057000BCF1020F18BF00F8012BA8BF20F8022B16
:10058000A1EB0C0100F0E8B85FEAC17C24BF00F8E1
:10059000012B00F8012B48BF00F8012B7047704772
:1005A00070477047704710B500F0FCF8006810BD48
:1005B00010B5044600F0F6F8046010BD2DE9F047D0
:1005C0000D4699469246044600F1240801688806C3
:1005D00004D5E06921F01001216000E00120A8426B
:1005E00001DD471B00E00027A1697A1902EB090031
:1005F000081AA0612078C00602D42046AFF300801C
:10060000002608E0D4E901211AF806009047206A84
:10061000401C761C20624E45F4DB2078C0060AD5CB
:100620002046AFF3008006E0D4E901213020904756
:10063000206A401C2062381EA7F10107F4DC07E0A5
:10064000D4E9012118F805009047206A401C206277
:10065000281EA5F10105F3DC2046AFF300802078C9
:10066000000602D50220BDE8F0870120FBE700006C
:1006700001694A1C02610878704700B58FB0CDE966
:1006800001310021059105497944CDE90310114656
:100690006846FFF77BFE0FB000BD0000E5FFFFFFDF
:1006A00010B5436913B1AFF3008001E0FFF7A2FE7C
:1006B000012010BD127800F124010A7000224A7056
:1006C0000122EDE711684FF0FF32E9E7074B70B503
:1006D0000D467B44FFF7D1FF0446284600F066F83C
:1006E00010B14FF0FF3070BD204670BD07620000B2
:1006F00010B5203AC0F00B80B1E81850203AA0E8BD
:100700001850B1E81850A0E81850BFF4F5AF5FEAF0
:10071000027C24BFB1E81850A0E8185044BF18C9A3
:1007200018C0BDE810405FEA827C24BF51F8043B4A
:1007300040F8043B08BF7047D20728BF31F8023B9E
:1007400048BF11F8012B28BF20F8023B48BF00F832
:10075000012B70474FF0000200B5134694469646B1
:10076000203922BFA0E80C50A0E80C50B1F12001C4
:10077000BFF4F7AF090728BFA0E80C5048BF0CC072
:100780005DF804EB890028BF40F8042B08BF7047D0
:1007900048BF20F8022B11F0804F18BF00F8012B42
:1007A00070470000004870475C5B0020007B00F051
:1007B00080007047004870475C5B00207546FFF77B
:1007C000F9FFAE4605006946534620F0070085460E
:1007D00018B020B5FFF7BAFDBDE820404FF0000685
:1007E0004FF000074FF000084FF0000B21F0070119
:1007F000AC46ACE8C009ACE8C009ACE8C009ACE85C
:10080000C0098D46704710B50446AFF300802046FE
:10081000BDE81040FFF729BD0029816802D041F0F2
:10082000010101E021F0010181607047084B10B522
:10083000D3F8042307490A40D0E900142143D0E942
:100840000240044321431143C3F8041310BD0000C8
:1008500000200140E030FCFFC06C80B270470246CF
:10086000002012680A4200D00120704730B542686B
:100870000F4B0C791A400B6842EA04221343436081
:1008800082680C4B4D791A40D1E9034323438C68AD
:1008900044EA4504234313438360C26A097D22F47A
:1008A0007002491EC9B242EA0151C16230BD000066
:1008B000FFFEFFFCFDF7FFC070B5072609290AD926
:1008C000C568A1F10A0404EB4404A640B543A34063
:1008D0001D43C56007E0056901EB4104A640B5432F
:1008E000A3401D4305611F23072A09D2446B521EF2
:1008F00002EB820293409C4391400C43446370BDE1
:100900000D2A09D2046BD21F02EB820293409C4352
:1009100091400C43046370BDC46A0D3A02EB82023D
:1009200093409C4391400C43C46270BD816841F088
:10093000804181607047000038B535489FED351A19
:100940009FED350AD0ED000A10EE810AF3EE0B0A96
:1009500080EE201ABDEEC10A10EE103A642B00DDC5
:1009600064232E48DFED2E0A90ED000A20EE200AC7
:10097000BDEEC00A10EE100A002800DA40422949F4
:1009800091ED000A20EE200ABDEEC00A10EE101A0A
:10099000002900DA4942244C2278A2B100222270B8
:1009A000224C2578012D10D0214DB5F904403AB3E1
:1009B000B5F90220B5F9001001B02346BDE830407A
:1009C0001CA0FFF7D7BC0122E9E71E4890ED000A02
:1009D0001D48BDEEC00A10EE103A90ED000A1B480B
:1009E000BDEEC00A10EE102A90ED000A18A0BDEE70
:1009F000C00A10EE101AFFF7BDFC0020207038BDB1
:100A0000CAB2C1B216A00094FFF7B4FC38BD000012
:100A10001800002000007A4400401C46305A002094
:100A20000000C842445A0020E80100209401002040
:100A30002A0200207B4225643A25643A25647D24FD
:100A400000000000500100204C010020480100205F
:100A50007B4325643A25643A25647D240000000028
:100A60007B4125643A25643A25643A25647D240057
:100A7000F0B58DB00121062002F0EEFA01210F023F
:100A8000384602F001FB032601258DF81C60002486
:100A900006958DF81F4006A9184800F0BBFF1020EE
:100AA00006908DF81C608DF81F4006A9144800F0D0
:100AB000B1FF0121384602F0F3FA0021384602F076
:100AC000EFFA089428040B94CDE9090408A8FFF76D
:100AD000ADFE8DF8044000948DF805400294049416
:100AE000084C8DF8145069462046FFF7BFFE0121DF
:100AF0002046FFF791FE0DB0F0BD0000000402405B
:100B000000080240002001401CB505F0F3FEDFF8AC
:100B100094A1DFF894B1654F654C664DDFF898817C
:100B200040F6B839002601900A2101A807F0D4FF49
:100B3000DAF80400484502DA401CCAF8040001F063
:100B4000B5F8DBF800000028EED15C48007810B161
:100B500000F0C8FF16E05A48007810B102F022FBFE
:100B600010E05848007810B102F0A2F90AE05648A7
:100B700090ED001A5548D0ED000A554890ED000A56
:100B800000F04EFB01F018FC524890ED000ABDEE5B
:100B9000C00A10EE100A03F0D1FB28B100231A4658
:100BA00019461846009648E0D7ED020A97ED000A6C
:100BB00001F0F2FA00EE100AB8EEC00A87ED010A61
:100BC000D4ED020A94ED000A01F024FB00EE100AB5
:100BD000B8EEC00A84ED010AD5ED020A95ED000ACF
:100BE00001F056FB00EE100AB8EEC00A85ED010ACE
:100BF000D8ED020A98ED000A01F088FB00EE100A19
:100C00003548B8EEC00A88ED010A007806288BD274
:100C1000DFE800F003162A460346BDEEC00A009640
:100C200010EE103A95ED010ABDEEC00A10EE102A42
:100C300094ED010AB1EE400A25E002F0BBFD73E736
:100C4000BDEEC00A009610EE103A95ED010ABDEE19
:100C5000C00A10EE102A94ED010ABDEEC00A10EE93
:100C6000101A97ED010A16E01C4800680090BDEECE
:100C7000C00A10EE103A95ED010ABDEEC00A10EE62
:100C8000102A94ED010ABDEEC00A10EE101A97ED7D
:100C9000010AB1EE400ABDEEC00A10EE100ACCE720
:100CA0000096E4E7AC0100205C010020305A0020EF
:100CB000445A0020585A00206C5A00205501002048
:100CC000560100205401002078010020740100200A
:100CD0007001002018000020450100206C01002058
:100CE000FEE700001CB50121022002F0B5F94FF427
:100CF0008060009001208DF8040000218DF806101E
:100D000003218DF805108DF807006946014800F0B1
:100D100081FE1CBD000402402DE9FE4F0024D8B323
:100D2000D1B3CAB3C3B3401E491EC7B2CEB2521E1E
:100D30005B1E02F0FF099DB20121082002F08CF930
:100D40000121480602F094F902218DF804104FF0B9
:100D5000030B4FF000088DF806808DF805B04FF0BA
:100D6000010ACDF800B08DF807A069464D4800F0A3
:100D700051FE092200214B4800F088FE0922012182
:100D8000484800F083FE4848C0F80080016841F000
:100D900001010160021D09E0FFE70120BDE8FE8FAF
:100DA000641CA4B2642C01D90220F7E71168C907BA
:100DB000F6D03D480168016001680160016801608A
:100DC000016841F010010160016801600168016083
:100DD000354943461C31C1F80080D1F80080DDF868
:100DE00030C048EA8C7CC1F800C0D1F800C04CEAA1
:100DF00007670F600F6847EA06560E600F6847EAFC
:100E000009460E600E682E430E60016821F0010154
:100E100001604FF6F07005E0641CA4B2844201D971
:100E20000320BBE71168C907F6D12048016841F0EB
:100E3000010101601D491C310A6822F001020A60AB
:100E40001A4A0C32146844F001041460021D14683C
:100E50001460164A143214681460144A4032136045
:100E6000121D13600A6842F001020A600168036003
:100E70000D481430016841F00201016014208DF822
:100E800008008DF809A08DF80AB08DF80BA002A813
:100E900001F0EEFB01220221034800F06FF900206F
:100EA0007CE70000000C0240006400400066004047
:100EB00010B588B002A907A8CDE9000106AB05AAC4
:100EC00004A9002000F06CF80498A0F58071813925
:100ED0004BD1284901209FED2D1A0870264900208A
:100EE0002E4C08702549087025490870254908705E
:100EF000254908709DF809009DF8081000EB0120B5
:100F000000B200EE100A2248F8EEC00A80EE810A14
:100F100080ED000A9DF80B009DF80A1000EB0120FF
:100F200000B200EE900A1B48F8EEE00AC0EE811A0B
:100F3000C0ED001A9DF80D009DF80C1000EB01208B
:100F400000B200EE900A1449F8EEE01A097802297E
:100F5000C1EE810A0BD04FF47A7190FBF1F000EEF4
:100F6000100AB8EEC00A84ED000A08B010BD03F004
:100F700059FDF8E7570100205401002056010020D8
:100F800055010020580100209001002000007A4403
:100F9000700100207401002045010020780100202C
:100FA000F0B5224CDDE9057504EB0014D4F8B0650A
:100FB00016F004061670D4F8B02532D0D2080A60B4
:100FC000D4F8B01501F002011970D4F8B41501F08D
:100FD0000F013970D4F8B8152970D4F8B815090A7A
:100FE0006970D4F8B815090CA970D4F8B815090EB1
:100FF000E970D4F8BC152971D4F8BC15090A6971D7
:10100000D4F8BC15090CA971D4F8BC15090EE97106
:1010100048B1012804D10648016841F0200101606F
:10102000F0BD520DCBE70248001FF5E7006000401D
:101030001064004038B50024009108232246214660
:1010400000F014F8054640F6FF7301E0641CA4B2FA
:10105000284600F061F8072801D09C42F6D39C4254
:1010600001D3012038BD002038BD0000F0B5064690
:101070002748059D0468640101D5002008E0046844
:10108000240101D5012003E00068C0003CD5022006
:10109000204C002704EB0014C4F8807599B3F600C7
:1010A000D4F880753743C4F88075D4F8806546EA73
:1010B0008101C4F88015D4F8801541EA4201C4F8D2
:1010C0008015D4F8842503F00F0122F00F02C4F834
:1010D0008425D4F884250A43C4F884252979D5F8D1
:1010E000052041EA0221C4F88C152978D5F80120A1
:1010F00041EA0221C4F88815D4F8801541F00101B5
:10110000C4F88015F0BD01E0FF20FBE77605C7E7D6
:101110000864004000600040174928B1012810D041
:1011200002281BD00520704708680A6800F00100FB
:1011300002F002020243086800F0806042EA106098
:10114000704708680A6800F0010002F002020243DA
:10115000086800F0006042EA5060704708680A685A
:1011600000F0010002F002020243086800F0805023
:1011700042EA90607047000008640040002A42691B
:1011800001D00A4300E08A43426170477CB5144CA9
:1011900000206D46215C2954401CC0B20828F9D3B8
:1011A000294640F20110FFF745FF00202118097A77
:1011B0002954401CC0B20828F8D369464FF4817006
:1011C000FFF738FF00202118097C2954401CC0B2C9
:1011D0000828F8D3694640F20310FFF72BFF7CBDC7
:1011E0008606002030B503460020012908D10022E0
:1011F000094C03E0A55C6840521CD2B29A42F9D374
:10120000002908D1044A323203E0545C6040491C92
:10121000C9B29942F9D330BD86060020704700005C
:101220002DE9F0472DED0E8BF0EE418AB0EE408AAD
:10123000B0EE0CEAFD4BDFF8F883FE4E1878FE4F57
:10124000B8EE0CCA9FEDFDDBDFEDFECAFE4AFF4D96
:10125000FF4CB6EE00AA08B1012810D1B0EE681A12
:10126000B0EE480A02F006FBFA4890ED008A90EDD5
:10127000019AD0ED028A187868B3012852D0C0B222
:1012800002287CD0032803D0042879D0052878D1FF
:1012900092ED000AB0EE4E1A68EE800AB0EE480AEF
:1012A00000EECA0A00EE8A8AF0EE4C0A85ED020AC8
:1012B00084ED028A07F0AEF885ED020A94ED020A89
:1012C000B0EE4E1AF0EE4C0A07F0A4F884ED020AD4
:1012D000C6ED02CAB8E098ED000A92ED001A79EE68
:1012E000080A30EE010A38EE491AF0EE601A48EEAC
:1012F000C00A48EE801AC5ED020AB0EE602AF0EE90
:10130000410A08EE801A48EEC00AB0EE420AC4ED67
:10131000020AC6ED021A87ED021AB0EE4E1AF0EE7E
:101320004C0A76E1DFF83083F0EE490A98ED000AC6
:1013300040EE280A20EE280A10EE100AC5ED020A37
:1013400009F0AAF969EE0AEA41EC1B0B1EEE900ABD
:1013500009F0A2F941EC1A0B18EE100A09F09CF9F9
:1013600041EC190BB0EE4D0AF0EE6D0A04F088FB6B
:101370009FEDBA1B51EC100B53EC112B02E069E00E
:101380002DE163E008F092FE53EC192B08F08EFE7D
:1013900053EC1A2B09F096F853EC1B2B08F0DCFBEE
:1013A00008F0A8FBA06098ED000A20EE280A10EED5
:1013B000100A09F071F941EC190B1EEE900A09F0C0
:1013C0006BF941EC1A0B18EE100A09F065F941ECC3
:1013D000180BB0EE4D0AF0EE6D0A04F051FB9FEDD4
:1013E000A11B51EC100B53EC112B08F05FFE53ECDA
:1013F000182B08F05BFE53EC1A2B09F063F853EC42
:10140000192B08F0A9FB08F075FBB06095ED020AF6
:10141000B0EE4E1AF0EE4C0A06F0FCFF85ED020A23
:1014200094ED020AB0EE4E1AF0EE4C0A06F0F2FF0E
:1014300084ED020A96ED020AB0EE4E1AF0EE4C0A66
:1014400006F0E8FF86ED020AC7ED02CABDEC0E8B7E
:10145000BDE8F087DFED85AA92ED000A914620EE07
:101460000A0A10EE100A09F017F941EC190B18EEF0
:10147000900A09F011F941EC100B04F041FBB0EEB9
:1014800040BAF0EE60BAD8F8000009F005F953EC64
:101490001B2B08F01DFC53EC192B09F013F808F076
:1014A00029FB02EE100A9FED721ADFED720AB0EE10
:1014B000680A06F0AFFFB5EEC00AF0EE408AF1EE22
:1014C00010FA16D099ED000AF0EE420A40EE4A0AF0
:1014D00060EE880A80EE821AF0EE420A40EE0A0AB6
:1014E00020EE880AC0EE020A85ED021AC4ED020A57
:1014F00003E085ED028A84ED028A9FED5F0A28EE03
:10150000800A10EE100A09F0C7F841EC1B0B18EE28
:10151000900A09F0C1F841EC100B9FED581B03F045
:1015200087FC9FED581B51EC100B53EC112B08F06E
:10153000BDFD41EC190B18EE900A09F0ADF841EC35
:10154000100BB0EE4D1AF0EE6D1A03F071FC9FED2A
:101550004F1B51EC100B53EC112B08F0A7FD53EC73
:10156000192B08F0F9FA53EC1B2B08F0ABFF9FED99
:10157000491B53EC112B08F0EFFA08F0BBFA00EE10
:10158000100ADFED460A70EE600A9FED450A454BF2
:10159000B0EE4E1A00EEAA0AF0EE4C0ABDEEC00AFA
:1015A00083ED000A95ED020A06F034FF85ED020A8C
:1015B00094ED020AB0EE4E1AF0EE4C0A06F02AFF45
:1015C00084ED020AC6ED02CAC7ED02CA40F69802CF
:1015D0004FF44871186806F02DFF186036E792ED59
:1015E000000AD8ED000AB0EE4E1A30EE200A60EE86
:1015F000280AB0EE480A00EECA0A00EE8A8AF0EE27
:101600004C0A85ED020A84ED020A86ED028A87ED16
:10161000028A06F0FFFE85ED020A94ED020AB0EEA2
:101620004E1AF0EE4C0A06F0F5FE3DE045010020B2
:1016300088010020585A00206C5A00200000000049
:10164000000008400000000084010020305A002003
:10165000445A0020245A00208C0100200000000081
:101660000000E0BF000000000000E03FD7231F445F
:101670000AD7A33E48E1FABEE5D0E23F00000000F1
:101680000000004000000000D34DF43F0000008047
:101690009318E4BF00000000022BF93F4C37C93F0C
:1016A0000080BB446C01002084ED020A96ED020A22
:1016B000B0EE4E1AF0EE4C0A06F0ACFE86ED020AD1
:1016C00097ED020AB0EE4E1AF0EE4C0A06F0A2FEBA
:1016D00087ED020ABAE600001CB50121102001F0D6
:1016E000BBFC00218DF80410032101208DF80510AA
:1016F00000908DF807006946014800F08BF91CBD89
:1017000000100240F0B5012189B0084601F0B0FC9C
:101710000121032001F0A0FC03258DF805500226CD
:101720004FF400408DF8046001242B4F00908DF899
:1017300006408DF807406946384600F06BF98DF891
:1017400005508DF804608DF806408DF8074008209C
:10175000224C00906946204600F05CF901220F21DE
:10176000384600F093F901220321204600F08EF95B
:1017700002A802F0D9FD00244FF6FF70ADF8084032
:1017800003907507ADF81040ADF80A4002A928464D
:1017900002F08CFD00231A460321284602F0A7FB25
:1017A00005A802F027FCADF81C4005A9284602F068
:1017B000CBFB0121284602F07FFB0122114628467F
:1017C00002F020FC0021284602F046FD01212846B7
:1017D00002F078FB09B0F0BD0000024000040240B6
:1017E00030B589B00121022001F042FC01210846F8
:1017F00001F032FCC020039003208DF8110002207C
:101800008DF8100001208DF81200224C8DF8130085
:1018100003A9204600F0FEF802220621204600F02F
:1018200035F902220721204600F030F9684602F01F
:101830007BFD00244FF6FF70174DADF8004001907E
:10184000ADF80840ADF802406946284602F02EFD8A
:1018500000231A460321284602F049FB05A802F09E
:10186000C9FBADF81C4005A9284602F06DFB01211B
:10187000284602F021FB01221146284602F0C2FB55
:101880000021284602F0E8FC0121284602F01AFB5C
:1018900009B030BD000002400004004030B589B0FE
:1018A0000121042001F0E4FB0121022001F0D4FB1E
:1018B000C020039003208DF8110002208DF8100045
:1018C00001208DF81200224C8DF8130003A9204648
:1018D00000F0A0F802220621204600F0D7F80222EC
:1018E0000721204600F0D2F8684602F01DFD0024D2
:1018F0004FF6FF70174DADF800400190ADF808406D
:10190000ADF802406946284602F0D0FC00231A4692
:101910000321284602F0EBFA05A802F06BFBADF8B4
:101920001C4005A9284602F00FFB0121284602F0C1
:10193000C3FA01221146284602F064FB0021284622
:1019400002F08AFC0121284602F0BCFA09B030BD41
:10195000000402400008004030B589B00121082091
:1019600001F086FB0121084601F076FB032003907D
:101970008DF8110002208DF8100001208DF8120062
:10198000224C8DF8130003A9204600F043F80222F0
:101990000021204600F07AF802220121204600F0C2
:1019A00075F8684602F0C0FC00244FF6FF70184D31
:1019B000ADF800400190ADF80840ADF8024069462E
:1019C000284602F073FC00231A460321284602F041
:1019D0008EFA05A802F00EFBADF81C4005A92846BA
:1019E00002F0B2FA0121284602F066FA01221146FD
:1019F000284602F007FB0021284602F02DFC0121B9
:101A0000284602F05FFA09B030BD00000000024035
:101A1000000C0040F0B5002201274FF0030C0B68CA
:101A200007FA02F52B40AB422CD1066853000CFAA2
:101A300003F4A64306600E79D0F800E09E4046EA23
:101A40000E0606600E79012E01D0022E12D1866894
:101A5000A64386604E79D0F808E09E4046EA0E061E
:101A600086604668AE43466045688E799640B6B259
:101A700035434560C568A543C560CC799C40C368C3
:101A80001C43C460521C102AC9D3F0BD4B07DB0EA7
:101A90009A40C90810B500EB8100016A0F249C40F0
:101AA000A1430162016A1143016210BD4183704785
:101AB0000183704710B50A4C0146072301222046D6
:101AC000FEF7FAFE2046FEF731FF02212046FEF720
:101AD000C6FE0028F9D02046BDE81040FEF7BCBE87
:101AE00000200140F0B464486449027864480E78EC
:101AF0000578644804789FED641A644BDFED642A2E
:101B0000DFED641A644F9FED652A654897ED000A82
:101B10006449F1EE400A52B1012A08D0092C66D27C
:101B2000DFE804F0654346494E5156596200092CDE
:101B300024D2DFE804F02305080B1013181B200043
:101B400080ED000A0CE080ED000A01E080ED001A53
:101B5000C3ED000A53E0C0ED000AF9E7C0ED000A4A
:101B600083ED001A4BE0C0ED000A01E080ED001AA1
:101B700083ED000A43E080ED000AF9E780ED001AEA
:101B800083ED001A012E04D0012D07D081ED001A3B
:101B900035E0C0EE220A60EE820A03E0C0EE220ABF
:101BA00060EEA10AC1ED000A29E080ED000A0CE018
:101BB00080ED000A01E080ED001AC1ED001A0EE090
:101BC000C0ED000AF9E7C0ED000A81ED001A06E059
:101BD000C0ED000A01E080ED001A81ED002A012E1F
:101BE00008D0012D09D00AE080ED000AF5E780ED6C
:101BF000001AEAE781ED002A01E0C1ED001A022A8D
:101C000006D0032A11D0052A0FD0042A0DD01FE0D8
:101C100091ED000AF0EE000A20EE200AF2EE020A30
:101C200080EE201A81ED001A12E0D0ED000AF5EEE8
:101C3000C00AF1EE10FAD1ED000A03D2F1EE600A0B
:101C4000C1ED000A20EE800AC0EE220AC1ED000AB2
:101C5000D0ED000A9FED141A80EE810A80ED000A93
:101C6000D3ED001AC1EE810AC3ED000A91ED001A0E
:101C7000F0BCFFF7D5BA000045010020910100201B
:101C80009201002059010020000000007401002092
:101C90000000FA43DB0FC9BF48010020DB0FC93F3A
:101CA000700100207801002000007A4410B5022065
:101CB0002DED048B01F056FA334C2060032001F027
:101CC00051FA6060042001F04DFAA060052001F097
:101CD00049FA2E49E0600978062911D2DFE801F0BF
:101CE0003F034A4A3F4A94ED000A47E0B8EEC09AE3
:101CF00094ED020AF8EEC08A00EE100AB8EEC08A2F
:101D00009FED231A234869EE810A90ED000A2248CC
:101D100060EE801AD0ED000A204881EEA02A69EE1C
:101D2000011A61EE801A80ED002A81EEA02A68EE89
:101D3000811A1B4828EE011A61EE801A21EE000A72
:101D400080EE201A80ED002A164881EEA02A80ED50
:101D5000002A154880ED001ABDEC048B10BD2168E7
:101D6000494200EE101A6168F8EEC09A494200EE4E
:101D7000101ABBE72168494200EE101AF8EEC09A2B
:101D800094ED010AB2E70000805A002045010020CE
:101D90000000C842800100207C010020305A002051
:101DA000445A0020585A00206C5A00202DE9F04176
:101DB00000250E4607462C4608E03846FFF77AFE17
:101DC0000544052004F040FD641CE4B2B442F4D3A1
:101DD000B5FBF6F080B2BDE8F081000010B50E2032
:101DE000FFF768FE08F012F99FED0E1B53EC112B64
:101DF00008F05CF99FED0D1B53EC112B08F056F920
:101E00009FED0C1B53EC112B08F050F99FED0B1BB1
:101E100053EC112B08F04AF907F06CFE00EE100AA3
:101E200010BD00006666666666660A400000000037
:101E30000000264000000040E17AF03F0000000072
:101E40000000303FFEE7000070B50D4C0025C4F8DF
:101E5000A0520C48016821F440210160016841F45E
:101E600080210160C4F8A452012004F5287404F014
:101E700007FD0120206004F003FD256070BD000017
:101E800000804042000402401CB50121084601F0D8
:101E9000E3F84FF44070012400908DF804400020D6
:101EA0008DF8060003208DF805008DF8074069467F
:101EB0000448FFF7AFFD0448C0F8A042C0F8A442B0
:101EC0001CBD0000000402400080404270B50D4C73
:101ED0000026C4F8A0620C48016821F4402101608A
:101EE000016841F4802101600125C4F8A45228460C
:101EF00004F5287404F0C4FC2560012004F0C0FC43
:101F0000266070BD00804042000402402DE9F04789
:101F1000814618480025016821F4402101600168CC
:101F20000160154E2C462F464FF00108C6F8A072EE
:101F3000012004F0A5FCC6F8A0826806D6F8241299
:101F4000000E11B140F0010501E020F00105012073
:101F500004F096FC641CE4B2082CE7D3B9F1000F3E
:101F600004D0FFF7B3FF2846BDE8F087FFF76CFF0A
:101F7000F9E70000000402400080404270B50D46C1
:101F8000044600F01BF8204600F08AF800F05EF8E6
:101F9000284600F085F800F059F800F00FF844F0FA
:101FA000010000F07DF800F051F80120FFF7AEFFCE
:101FB000044600F02BF8204670BD000070B51148B3
:101FC000016821F440210160016841F48021016031
:101FD0000D4C0120C4F8A402D4F8241200290FD01B
:101FE000C4F8A00204F04CFC0025C4F8A452D4F8B4
:101FF0002402002804D1012004F042FCC4F8A052BD
:1020000070BD000000040240008040420D4810B541
:10201000016821F440210160016841F480210160E0
:10202000094C0020C4F8A002C4F8A402012004F561
:10203000287404F025FC012020606060BDE8104099
:1020400004F01EBC000402400080404270B51248FB
:102050000024016821F440210160016801600F4DF6
:102060000126C5F8A462304604F00AFCC5F8A06257
:1020700007E0641CE4B2322C03D9FFF7C7FF00204D
:1020800070BD012004F0FCFBD5F824020028F0D13B
:10209000C5F8A002012070BD00040240008040424B
:1020A0002DE9F04105461448016821F44021016002
:1020B000016841F480210160104E0027C6F8A0722B
:1020C0003C464FF00108E809C6F8A4026806050E70
:1020D000012004F0D5FBC6F8A082012004F0D0FB5B
:1020E000C6F8A072012004F0CBFB641CE4B2082CFB
:1020F000E9D3BDE8F08100000004024000804042C6
:1021000070B515460E460446FFF758FF2046FFF708
:10211000C7FFFFF79BFF3046FFF7C2FFFFF796FFB1
:102120002846FFF7BDFFFFF791FFBDE87040FFF7BE
:102130006DBF000008B504F0DDFB164D00274FF41D
:102140007A78A5F13004AE1D00900A21684606F0A9
:10215000C3FC2078401C2070A068404507DA401C72
:10216000A060D4F82A00C4F81E00E08D60842A1D07
:102170000848A91C04F0CCFB00F050F920780D2889
:10218000E3D30448321D801DB11C04F0E1FB27702D
:10219000DBE7000030020020174830EEC00A174984
:1021A000D0ED050A174A91ED001A70EE600A144945
:1021B00060EE810A91ED001A41EE000A90ED041ADA
:1021C00070EE810A10EE901AC0ED040A914203DD10
:1021D000DFED0D0AC0ED040A10EE901A0B4A914291
:1021E00003D9DFED0B0AC0ED040A80ED050ABDEE50
:1021F000E00A10EE100A7047AC0100204C010020EC
:10220000500100200040834600408346004083C6C2
:10221000004083C6174830EEC00A1749D0ED080ABF
:10222000174A91ED001A70EE600A144960EE810AB7
:1022300091ED001A41EE000A90ED071A70EE810A46
:1022400010EE901AC0ED070A914203DDDFED0D0A92
:10225000C0ED070A10EE901A0B4A914203D9DFED48
:102260000B0AC0ED070A80ED080ABDEEE00A10EE89
:10227000100A7047AC0100204C01002050010020E2
:102280000040834600408346004083C6004083C62A
:10229000174830EEC00A1749D0ED0B0A174A91EDE6
:1022A000001A70EE600A144960EE810A91ED001A7E
:1022B00041EE000A90ED0A1A70EE810A10EE901AB3
:1022C000C0ED0A0A914203DDDFED0D0AC0ED0A0AF6
:1022D00010EE901A0B4A914203D9DFED0B0AC0EDC4
:1022E0000A0A80ED0B0ABDEEE00A10EE100A7047F4
:1022F000AC0100204C01002050010020004083462A
:1023000000408346004083C6004083C6174830EE35
:10231000C00A1749D0ED0E0A174A91ED001A70EE67
:10232000600A144960EE810A91ED001A41EE000A3C
:1023300090ED0D1A70EE810A10EE901AC0ED0D0AA4
:10234000914203DDDFED0D0AC0ED0D0A10EE901A8B
:102350000B4A914203D9DFED0B0AC0ED0D0A80ED67
:102360000E0ABDEEE00A10EE100A7047AC01002024
:102370004C0100205001002000408346004083466D
:10238000004083C6004083C61CB50121082000F030
:1023900063FE4FF48070009000208DF8040003204D
:1023A0008DF8050001208DF8070069460148FFF708
:1023B00031FB1CBD000C024010B5322004F07EF849
:1023C000022805D1044903480A680260898881808F
:1023D00010BD00001E020020240200207CB5012157
:1023E000102000F039FE01208DF8040000228DF845
:1023F000062003218DF80510074D4FF480648DF8F9
:102400000700009469462846FFF704FB214628464A
:10241000FFF74EFB7CBD00000010024070B5174C6A
:10242000221D2046A11C04F075FAA4F12A004FF4E5
:102430007A738068124A1349984203DA01200860CF
:10244000107018E0984201D1002010700B4B4FF42F
:10245000967008609B1F2188198062885A80A08826
:1024600098809B1F1E88891B21805988511A618082
:102470009988401AA080284670BD00002A020020DA
:102480004401002034000020FEE700002DE9FC4755
:102490000121172000F0E0FD01248DF80440002503
:1024A0003C208DF806500226DFF8B8A000908DF889
:1024B00005608DF8074069465046FFF7ABFA8DF886
:1024C00004404FF408408DF80650DFF89C800090DF
:1024D0008DF805608DF8074069464046FFF79AFA87
:1024E0008DF8044020208DF80650DFF88090009091
:1024F0008DF805608DF8074069464846FFF78AFA6F
:102500008DF804408DF806508DF8056027038DF88E
:102510000740174C009769462046FFF77BFA0821D1
:102520005046FFF7C3FA04215046FFF7BFFA1021C7
:102530005046FFF7BBFA20215046FFF7B7FA39465D
:102540002046FFF7B3FA20214846FFF7AFFAE1141F
:102550004046FFF7ABFAB1034046FFF7A7FABDE8E4
:10256000FC87000000000240000402400008024016
:10257000001002402DE9F041884607468AB001214B
:10258000022000F081FD0121042000F065FD354EA0
:10259000032206213046FFF779FA0322072130464D
:1025A000FFF774FA032208213046FFF76FFA03227F
:1025B00009213046FFF76AFA4FF470700590022047
:1025C0008DF8180003208DF8190000248DF81A40AA
:1025D00001258DF81B5005A93046FFF71BFA224E46
:1025E000ADF81C800897ADF82450ADF81E4007A93F
:1025F000304601F05BFE6020ADF80000ADF80250FF
:10260000ADF80C406946304601F004FD694630469D
:1026100001F03CFD6946304601F08CFD69463046CC
:1026200001F0D6FD0121304601F056FC082130466C
:1026300001F026FD0821304601F072FD08213046E8
:1026400001F0C0FD0821304601F0FCFD01213046BB
:1026500001F028FC0121304601F034FC0AB0BDE84D
:10266000F0810000000802400004014070470000B3
:1026700030B50F23C27801780125FAB1144A1268E7
:1026800001F1E02102F4E062C2F5E062C2F3072248
:10269000C2F10404D3404278A24084781C40144321
:1026A000220181F80024007800F01F018D404009CC
:1026B000800000F1E020C0F8005130BD01F01F00A3
:1026C00085404809800000F1E020C0F8805130BD0D
:1026D0000CED00E002490843024908607047000021
:1026E0000000FA050CED00E010B40021084B0A468A
:1026F000002003EBC004401CC0B262548028F8D311
:10270000491CC9B20829F3D310BC00F0B9B80000C5
:102710003C02002010B57F2816D83F2914D8072383
:10272000A3EBD10301F00701C1F107040121A1408E
:10273000064CDBB204EBC000002AC25CC9B201D077
:102740000A4300E08A43C25410BD00003C0200204E
:102750007CB50121102000F07FFC01268DF804607B
:1027600000244FF4F0708DF8064000908DF805407D
:102770008DF8074069464048FFF74CF901210807EA
:1027800000F076FC012000F061FC002000F0DCFC91
:10279000002000F05BFC394DC5F89C42642005F533
:1027A000277504F051F82E600021AE2000F02AF9C0
:1027B0000021D52000F026F90021502000F022F958
:1027C0000021A82000F01EF900213F2000F01AF996
:1027D0000021D32000F016F90021084600F012F97C
:1027E0000021402000F00EF900218D2000F00AF9B0
:1027F0000021142000F006F90021202000F002F949
:102800000021022000F0FEF80021A12000F0FAF8DB
:102810000021C02000F0F6F80021DA2000F0F2F8E4
:102820000021122000F0EEF80021812000F0EAF8EB
:102830000021EF2000F0E6F80021D92000F0E2F8B6
:102840000021F12000F0DEF80021DB2000F0DAF8B2
:102850000021302000F0D6F80021A42000F0D2F8AA
:102860000021A62000F0CEF80021AF2000F0CAF829
:10287000FFF73AFF7CBD000000100240000042421A
:1028800070B5104E002505F1B000C0B2002100F077
:10289000B9F80021084600F0B5F80021102000F03A
:1028A000B1F8002406EBC4000121405D00F0AAF855
:1028B000641CE4B2802CF5D36D1CEDB2082DE2D37C
:1028C00070BD00003C0200202DE9F04F203A9846F0
:1028D0000D468346894602F0FF0A00262EE0B8F135
:1028E0000C0F08D0174901EB0A100027845D200661
:1028F00007D5099A08E014490AEB4A0001EB800069
:10290000F3E7099890B1002229465846FFF702FFE5
:102910006D1C6006EDB2040EA5EB0901414507D11F
:102920000BF101004D4600F0FF0B05E00122EBE743
:102930007F1CFFB2082FDAD3761CF6B24645CED301
:10294000BDE8F08FF2AC00087EA800082DE9FF4F2B
:1029500081B00027DDF838B01D46924680463C46DF
:102960004FF001094FEA5B0627E0281B401EC1B269
:102970000A2004F07FFABAFBF0F00A21B0FBF1F272
:1029800001FB120027B9691E8C4201DA48B1012708
:102990003030C2B206FB0480C0B25B46CDF8009076
:1029A00006E006FB0480C0B25B462022CDF8009012
:1029B0000299FFF789FF641CE4B2AC42D5D305B09D
:1029C000BDE8F08FF8B516460D460446012714E021
:1029D0007A2C02D900241035EDB23A2D03D9002407
:1029E0002546FFF781FE009732780C2329462046C2
:1029F000FFF76AFF0834E4B2761C30780028E7D18C
:102A0000F8BD000030B500230E4A012411B1C2F810
:102A1000A04201E0C2F8A0320021C2F894320506BB
:102A200002D5C2F8984201E0C2F89832C2F8944246
:102A30004006491C000EC9B20829EED3C2F8A042D4
:102A400030BD0000000042420020044A01461154FB
:102A5000401CC0B20928FAD3704700003C06002091
:102A60002DE9F84F01258046ADF800501D4800269D
:102A70004670ADF800501C4F1C4CDFF874B0814616
:102A80004FF6FF7A25E0BDF8000010EA080F02D0EB
:102A9000C7F88C5201E0C7F88C62C4F8B052052028
:102AA00003F0EEFEC4F8B062052003F0E9FEC4F8BE
:102AB000B052DBF83C0230B199F80110BDF80020AB
:102AC000114389F80110BDF800100AEA4100ADF881
:102AD0000000BDF80000FF28D5D9BDE8F84F102050
:102AE00003F0CEBE3C060020008041420080404200
:102AF0000000424270B5FFF7A7FF00F023F90B4832
:102B00000B4AB0F803400A480832448000200125EF
:102B100012F8103000F101005B1E05FA03F12142AA
:102B2000C0B202D01028F3D3002070BD3C060020B4
:102B30003C00002010B5154C0020C4F8B402102051
:102B400004F52D7403F09CFE0120FFF789FF43205C
:102B5000FFF786FF0020FFF783FF0120FFF780FFCC
:102B60000020FFF77DFF0020FFF77AFF0020FFF72E
:102B700077FF0020FFF774FF0020FFF771FF0120AF
:102B80002060BDE81040102003F07ABE0080404273
:102B900010B5154C0020C4F8B402102004F52D74B3
:102BA00003F06EFE0120FFF75BFF4320FFF758FFA5
:102BB0000020FFF755FF0020FFF752FF5A20FFF7D4
:102BC0004FFF5A20FFF74CFF5A20FFF749FF5A20CA
:102BD000FFF746FF5A20FFF743FF01202060BDE8C2
:102BE0001040102003F04CBE008040427CB5012113
:102BF0001A2000F031FA01248DF804400025082045
:102C00008DF80650022600908DF805608DF807407B
:102C100069461048FEF7FEFEE00300908DF8045070
:102C200003208DF805008DF8076069460A48FEF715
:102C3000F1FE8DF804404FF440508DF8065000909E
:102C40008DF805608DF8074069460448FEF7E2FEFE
:102C50007CBD0000000C0240001002400004024055
:102C600010B5FFF747FF00EE100A27482C4BB8EECF
:102C7000400A012280ED000A2448C17900EE901A32
:102C80002349F8EE600AC1ED000A017A00EE901ABD
:102C90002049F8EE600AC1ED000A417901EE101AF0
:102CA0001D49B8EE411A81ED001A807910EE101A14
:102CB00001EE100A1948B1F1814FB8EE411A80EDCA
:102CC000001A184801D10178E1B15968002918D0DB
:102CD00010EE901A144B994213DA0178002910D1A2
:102CE00012490968B1F57A7F0BDB114902700020A7
:102CF0000870104908701049087010490870104990
:102D0000087010BD5A60E3E7A80100203C060020CF
:102D1000980100209C010020A0010020A4010020B7
:102D20003C000020540100200000EC42080200207A
:102D3000560100205501002057010020900100207D
:102D4000580100202DE9FC4700268DF80060012580
:102D5000ADF80450234CC4F8B462234F3878FFF721
:102D60007FFE7878FFF77CFE02208DF80000DFF808
:102D70007C801F4F4FF6FF792CE0ADF804501DE02A
:102D8000C4F8B052052003F07BFDC4F8B062052002
:102D900003F076FDC4F8B052D8F83C0240B19DF87B
:102DA0000000BDF80410385C08439DF8001078540A
:102DB000BDF8041009EA4100ADF80400BDF80400B4
:102DC000FF28DDD9102003F05BFD9DF80000401CBA
:102DD0008DF800009DF800000928CED3C4F8B45245
:102DE000BDE8FC87008040423C00002000004242D9
:102DF0003C06002010B500F00DF800F00BF800F0D4
:102E000009F8FFF797FE00F027F8BDE81040FFF73C
:102E1000BFBE000010B50F4C0020C4F8B402102053
:102E200004F52D7403F02CFD0120FFF719FE42205C
:102E3000FFF716FE0020FFF713FE0020FFF710FE3D
:102E40000020FFF70DFE01202060BDE8104010209B
:102E500003F016BD0080404210B5144C0020C4F8A9
:102E6000B402012004F52D74FFF7FAFD4420FFF7AA
:102E7000F7FD0020FFF7F4FD0120FFF7F1FD03202F
:102E8000FFF7EEFD0020FFF7EBFD0020FFF7E8FD68
:102E90000020FFF7E5FD0020FFF7E2FD01202060A4
:102EA000BDE81040102003F0EBBC00000080404261
:102EB000554830B4D0ED000A9FED540A54486FF0E5
:102EC000130370EE600AFDEEE00A10EE901AD0EDEA
:102ED000000A504870EE600AFDEEE00A10EE902AFB
:102EE000D0ED000A9A4230EE600ABDEEC00A10EE44
:102EF000100A02DD142A00DA0022994202DD1429A8
:102F000000DA0021984202DD142800DA0020424B4A
:102F1000434C424D1B6894ED000AF1EE040AAB42AB
:102F200002D130EE200A04E03E4DAB4203D130EE38
:102F3000600A84ED000AB5EEC00AF1EE10FA03D281
:102F40009FED390A84ED000A00EE102A01EE901A76
:102F5000D4ED000AB8EEC00A02EE100AF8EEE11A4B
:102F6000DFED352AB8EEC22A20EE201A9FED2F0A97
:102F700061EEA01A22EE222A21EE001A2C4A61EEFE
:102F8000801A2C4B22EE000A2C4982ED001A2C48A4
:102F9000C3ED001A81ED000A00789FED2A2AF0B1F6
:102FA00001281CD0022806D003280FD005280DD0F8
:102FB00004280BD019E0F0EE000A20EE200AF2EE11
:102FC000020A80EE202A81ED002A0EE0B5EEC01A3A
:102FD000F1EE10FA03D2B1EE400A81ED000A20EEC4
:102FE000200AC0EE020AC1ED000A9FED172A81EE09
:102FF000020AC1EE820A82ED000AC3ED000A91EDD9
:10300000001A30BCFEF70CB9980100200000004304
:103010009C010020A0010020A801002000003041F8
:103020004801002000001041000000000000003CAA
:103030007001002074010020DB0FC93F78010020DF
:10304000450100200000FA4300007A44014908626B
:103050007047000000000E42044A0029116801D0A8
:10306000014300E0814311607047000030380240A6
:10307000044A0029116801D0014300E08143116036
:103080007047000040380240044A0029116801D00E
:10309000014300E081431160704700004438024062
:1030A000044A0029116801D0014300E08143116006
:1030B000704700002438024070B5204B1968204C3E
:1030C00011F00C0104D06610042903D0082903D0A4
:1030D00004601BE0066019E0184A121F1168C1F372
:1030E0008055116801F03F0115B1B6FBF1F101E027
:1030F000B4FBF1F114681268C4F388146143C2F39D
:103100000142521C5200B1FBF2F1016019680F221A
:1031100002EA11110B4A545C0168E14041601C68ED
:10312000072505EA9424145D21FA04F484601B68E1
:1031300005EA5333D25CD140C16070BD083802400B
:103140000024F400C0000020054900220A700A7023
:10315000012802D0042801D1052008707047000022
:10316000703802400021022807D003280BD0042821
:103170000BD005280BD0002070474FF08042506ADA
:10318000516200B27047044A02E0044A00E0044A77
:103190001068116000B27047240400402408004009
:1031A000240C00402DE9F0414FF4FA66614B771092
:1031B00032463946186805F03DF95F4D18603246D1
:1031C0003946286805F036F95C4C286032463946A5
:1031D000206805F02FF93246594E20603946306894
:1031E00005F028F930602A6821681B686FF06304D5
:1031F000A2F2DC52A0F2DC50A1F2DC51A3F2DC53CB
:10320000A24202DD642A00DA0022A04202DD642824
:1032100000DA0020A14202DD642900DA0021A34285
:1032200002DD642B00DA002300EE101A454CB8EEE4
:10323000C00AD4ED000A30EE800ABDEEC00A10EEDE
:10324000101A002900DA00214FF4FA754A4392FB64
:10325000F5F24042484390FBF5F000EE102ADFED16
:103260003C1A394CF8EEC00A00EE100A5842374DAD
:10327000B8EEC01A00EE100A374AC4ED000AB8EEE4
:10328000C00A364885ED001A20EE212ADFED311AFA
:1032900082EE210A82ED000A007850B1012808D0A0
:1032A00002280DD0032812D0052810D004280ED0F3
:1032B00022E002EE101AB8EEC22A20EE020A17E04F
:1032C000F0EE001A20EE210AF2EE021A10E0F5EEFE
:1032D000C00AF1EE10FA03D2B1EE400A82ED000A04
:1032E000B0EE402A00EE101AB8EEC00A22EE000A34
:1032F00080EE212A82ED002A9FED190A1949C0EEBD
:10330000801AC1EE000AC4ED001AC5ED000A087863
:1033100038B19FED150A401E84ED000A82ED000AC7
:10332000087092ED001A94ED000ABDE8F041FDF737
:1033300077BF0000780000207C0000208000002083
:10334000840000204801002070010020740100204A
:10335000DB0FC93F0000FA4378010020450100203F
:1033600000007A44AC0100200000000010B551ECD0
:10337000100B2DED068BB0EE439AF0EE629AB0EE94
:1033800042AAF0EE618AB0EE418A06F0B3FBBDEED0
:10339000CA0A154910EE102ABDEEE90A086081ED4F
:1033A000018A10EE103AC1ED058AC1E9022381EDD0
:1033B000049A9900514300EE101A0C49B8EEC00A65
:1033C00081ED000A9FED0A0A0A4929EE000A81ED03
:1033D000000A09490860094880ED008A0848C0EDE4
:1033E000008ABDEC068B10BD905A00207C010020A5
:1033F000DB0F49408001002084010020880100206B
:103400008C01002070B53E4C4FF4AD700A21206055
:103410000820FEF7CBFC21683A4C90FBF1F0C0B2DB
:103420002070052801D905202070C0B29FED361A02
:103430009FED363A06281DD2DFE800F0031029344C
:103440003D48F0EE411A9FED323AF2EE0A2AB3EE11
:103450000E2A9FED301A9FED300B09E09FED303AB8
:10346000F2EE0A2AB3EE0E2ADFED2E1A9FED2E0B96
:10347000FFF77CFF2578082404222D482D490723D7
:10348000062D38D2DFE805F02D3038383438F0EE2C
:10349000411AF2EE0A2AB3EE0E2A9FED271A9FED8B
:1034A000270BE5E7F2EE0A2AB3EE0E2AF0EE411AF8
:1034B0009FED240BDCE7F0EE411AF2EE0A2AB3EEA0
:1034C0000E2A9FED221A9FED220BD1E79FED223AA3
:1034D000F2EE0A2AB3EE0E2AF0EE411A9FED1F0B10
:1034E000C6E704600E2005E0062202600A2001E023
:1034F00004600B20086070BD02600B6070BD0000AE
:10350000680100204501002000000000B81E853D34
:103510009A99993D7B14AE3D022B8716D9CEB73FC1
:103520008FC2753D643BDF3D0000000000000000DD
:103530006001002064010020BC74133E0000008084
:103540006ABCC43F000000A0EFA7C63FE926313E99
:10355000000000C09DEFC73FC520303D000000E0E7
:103560007A14CE3F2DE9F0478A46814601218EB07C
:103570000846FFF789FD01211020FFF76DFD0225A8
:103580008DF80450032768038DF805700024DFF8D8
:10359000688100908DF8064001268DF80760694625
:1035A0004046FEF737FA8DF8045028028DF8057072
:1035B00000908DF806408DF8075069464046FEF7AA
:1035C00029FA8DF80450A8028DF8057000908DF846
:1035D00006408DF8075069464046FEF71BFA8DF805
:1035E000045028038DF8057000908DF806408DF882
:1035F000075069464046FEF70DFA01220921404670
:10360000FEF744FA01220B214046FEF73FFA012261
:103610000D214046FEF73AFA01220E214046FEF700
:1036200035FA364DADF828A0CDF82C90ADF83040E5
:10363000ADF82A400AA9284600F038FEADF8084047
:10364000ADF80C60ADF80A40ADF80E40ADF8104092
:1036500002A9284600F078FC0420ADF80800ADF877
:103660000C60ADF80A40ADF80E40ADF8104002A96C
:10367000284600F069FC0820ADF80800ADF80C60A1
:10368000ADF80A40ADF80E40ADF8104002A928464A
:1036900000F05AFC6020ADF81400ADF816600794F5
:1036A000ADF82040ADF8244005A9284600F090FD73
:1036B0000821284600F0C6FD1B208DF834008DF847
:1036C00035608DF836408DF837600DA8FEF7D0FFD5
:1036D00001220E21284600F095FC0121284600F029
:1036E000FBFB0121284600F0EDFB40F2DC50286492
:1036F0000EB0BDE8F087000000100240000001405D
:103700000CB50022274900920192086840F48030ED
:1037100008604FF4A043086800F40030019000985E
:10372000401C0090019810B900989842F3D10868A5
:10373000800334D5012001901A484030026842F0DD
:10374000805202601848026842F440420260154804
:10375000083002680260026842F4004202600268B7
:1037600042F4A0520260031F104A1A600A6842F035
:1037700080720A600A689201FCD50D4940F2057218
:103780000A60016821F003010160016841F0020153
:1037900001600168C1F381010229FAD10CBD0192D7
:1037A0000CBD000000380240007000400854400783
:1037B000003C0240F0B5264E00240125059F00285C
:1037C00004DAC6F88842C6F88C5203E0C6F888527C
:1037D000C6F88C4201DAC0F10000DFF878C0CCF8FE
:1037E0000000002904DAC6F89452C6F8904203E0BB
:1037F000C6F89442C6F8905201DAC1F100011648A9
:10380000016016491648002A04DDC1F89442C0F848
:10381000B05203E0C1F89452C0F8B04201DAC2F1EC
:103820000002104802601048002B04DDC0F8BC42C2
:10383000C0F8AC5203E0C0F8BC52C0F8AC4201DAA8
:10384000C3F100030948036009480764F0BD0000A4
:10385000000040423404014038040140000041426D
:10386000000042423C0401400080404240040140CC
:103870000000014000B5B0EE412AF0EE602AB0EE43
:10388000401A9FED490A4948D0ED001ADFED480A79
:10389000B5EEC01AF1EE10FA02DD71EE801A0EE0FC
:1038A000B5EEC01AF1EE10FA02D271EEC01A06E0BF
:1038B000B5EEC01AF1EE10FA03D161EEA01AC0ED18
:1038C000001A3A49F5EEC02AD1ED011AF1EE10FACC
:1038D00002DD71EE801A0EE0F5EEC02AF1EE10FA6C
:1038E00002D271EEC01A06E0F5EEC02AF1EE10FA2F
:1038F00003D161EEA01AC0ED011A2C49B5EEC02A21
:10390000D1ED021AF1EE10FA02DD31EE800A0EE07E
:10391000B5EEC02AF1EE10FA02D231EEC00A06E08E
:10392000B5EEC02AF1EE10FA03D121EEA00A80ED27
:10393000020AB0EE410A02F0C9FFF0EE400AB0EE12
:10394000410A02F0C3FFF1EE401AB0EE601A90EDAA
:10395000000AF0EE610A04F05DFD80ED000AB0EEB1
:10396000620A02F0B3FFB0EE401AB0EE620A02F053
:10397000ADFFF1EE400A90ED010A04F04BFD80ED41
:10398000010AB0EE420A02F0A1FFB0EE401AB0EE1A
:10399000420A02F09BFFF1EE400A90ED020A04F0A9
:1039A00039FD80ED020A00BD0AD7233C245A0020CD
:1039B0006666663F4FF0E0210428086903D020F0D6
:1039C00004000861704740F00400FAE710B505F004
:1039D00029FE012803D0BDE8104005F017BB10BD3B
:1039E000124810B5016841F4700101601048016887
:1039F00041F0010101600E4A0021083211600268A5
:103A00000C4B1A400260031D0B4A1A60026822F434
:103A10008022026006480C300160FFF771FE034906
:103A20004FF000608039086010BD000088ED00E0B4
:103A300000380240FFFFF6FE1030002470B5048C01
:103A400024F001040484058B048C4FF6FF7606EA0B
:103A50000313134325F0F3052B4324F00A020A4312
:103A600042F001010383018470BDF0B5048C24F0A1
:103A700010040484078B068C4FF6FF7404EA0115CA
:103A800027F4734704EA0331394304EA02220A4364
:103A900026F0A001294341F0100102830184F0BD0A
:103AA0002DE9F047904800248169B1F5C86F13DD16
:103AB0008E490A7882B98E4A1268B2F57A7F0BDB9A
:103AC00001220A708B490C708B490C708B490C7069
:103AD0008B490C708B490C70804600788A4D00062B
:103AE00042F20F764FF4FA772DD40221284600F0E7
:103AF0001FFA40B30221284600F0E1F998F80000CF
:103B0000400628463DD500F00BFA80B2A8F8060022
:103B1000B8F804104246884201D2566300E054636C
:103B2000401A516B08445061516A401A00D5404216
:103B3000B84200DD51615069506288F800400021B0
:103B4000284600F097FA98F8010000063AD40421BC
:103B5000284600F0EDF9A8B30421284600F0AFF99B
:103B600098F80100400628464AD500F0DBF980B2FB
:103B7000A8F80A00B8F80810424688420ED29663A8
:103B80000DE000F0CDF90146A8F8041098F80010F7
:103B900041F0400188F800100221D1E79463401AF7
:103BA000916B08449061916A401A00D54042B84236
:103BB00000DD91619069906288F8014000212846FB
:103BC00000F0A4FA98F8020000063AD4082128462A
:103BD00000F0AEF9A8B30821284600F070F998F873
:103BE0000200400628464FD500F09EF980B2A8F8A2
:103BF0000E00B8F80C10424688420ED2D6630DE093
:103C000000F090F90146A8F8081098F8011041F06A
:103C1000400188F801100221D1E7D463401AD16B2A
:103C20000844D061D16A401A00D54042B84200DD54
:103C3000D161D069D06288F802400021284600F0A6
:103C4000B7FA3248007802284CD098F80300C146F1
:103C5000000647D41021284600F06AF9002841D018
:103C60001021A846284600F02AF999F803004D468D
:103C700040062BD5404600F059F980B26882298A67
:103C800088420ED22E640DE000F04EF90146A8F8ED
:103C90000C1098F8021041F0400188F8021002213F
:103CA000CCE72C64401A296C08442862296B401A1E
:103CB00000D54042B84200DD2962286A2863EC70D2
:103CC00000214046BDE8F04700F0B2BA4446404605
:103CD00000F02CF92882E878022140F04000E870DA
:103CE0002046EFE7BDE8F087640000205601002081
:103CF0000802002055010020540100205701002037
:103D000058010020900100200000014045010020E2
:103D1000F0B50D460646012189B00846FFF7B4F913
:103D200001211020FFF798F94FF4D44002220390AC
:103D30008DF8102003208DF811000024404F8DF8DD
:103D400012408DF8132003A93846FDF763FE0122C7
:103D500009213846FDF79AFE01220B213846FDF76E
:103D600095FE01220D213846FDF790FE01220E211D
:103D70003846FDF78BFE0696324EADF81450ADF87E
:103D80001C40ADF8164005A9304600F08FFA012519
:103D90000F20ADF80040ADF80450ADF80800ADF8C4
:103DA0000240ADF806406946304600F0CDF80420E8
:103DB000ADF80000ADF80450ADF80240ADF8064093
:103DC000ADF808406946304600F0BEF80820ADF86E
:103DD0000000ADF80450ADF80240ADF80640ADF873
:103DE00008406946304600F0AFF80C20ADF80000FE
:103DF000ADF80450ADF80240ADF80640ADF808400B
:103E00006946304600F0A0F81B208DF820008DF8A0
:103E100021408DF822408DF8235008A8FEF728FC99
:103E200001221E21304600F0EDF80121304600F05D
:103E300053F80121304600F045F809B0F0BD00000C
:103E400000100240000001400248018A21F00101F7
:103E500001827047000001404FF08040018A018AD2
:103E600021F001010182704703480188018821F097
:103E700001010180704700001004004003480188E0
:103E8000018821F001010180704700001008004006
:103E900003480188018821F001010180704700007A
:103EA000100C00400029018802D041F0800101E09F
:103EB00021F0800101807047C94301827047C943E6
:103EC000018270470029018802D041F0010101E020
:103ED00021F0010101807047002930F8441F02D011
:103EE00041F4004101E0C1F30E010180704770B55B
:103EF0000589048B068C25F007050D434FF6FC4120
:103F00000C4040F201110C434FF6FF7101EA03111E
:103F100026F022061143314305810483018470BDDC
:103F2000406B7047806B7047C06B7047006C704788
:103F300002460020138A92890B4202EA010202D053
:103F4000002A00D0012070472DE9F0410C460E8870
:103F50004988A2882389054616B3042E28D0082E46
:103F60002E8C4FF6FF702BD026F480562E84AF8B0C
:103F70002E8C00EA022200EA013127F473473A430B
:103F800000EA0330104326F420420A4342F48051F1
:103F9000A8832984E1882846BDE8F04100F07AB979
:103FA000FFF74CFDE1882846BDE8F04100F056B926
:103FB000FFF75BFDE1882846BDE8F04100F056B907
:103FC00026F480762E84AF8B2E8C00EA012100EA45
:103FD0000310104327F0F307384326F420620A4306
:103FE00042F48071A8832984E1882846BDE8F04125
:103FF00000F048B900210180418001228280C18007
:1040000001817047002A828901D00A4300E08A4377
:104010008281704730B5028C22F001020284028C4A
:104020008388048B22F0020224F073050C882C4351
:104030008D8915434A882A430C4DA84202D00C4D65
:10404000A8420DD122F00805CA8923F440732A43FF
:1040500022F004058A882A430D8A1D434B8A2B438C
:104060008380048389684163028430BD000001407D
:1040700000040140028C22F002020A4302847047CD
:10408000028B22F008020A430283704770B5028C4B
:1040900022F010020284028C8388048B0D8824F4A1
:1040A000E6464FF6FF7404EA052535438E8922F073
:1040B000200204EA061616434A8804EA0212324332
:1040C000104EB04202D0104EB04215D122F0800600
:1040D000CA8923F4406304EA0212324322F0400604
:1040E0008A8804EA021232430E8A04EA86061E43D4
:1040F0004B8A04EA830333438380058389688163A1
:10410000028470BD0000014000040140028C4FF6A3
:10411000FF7322F0200203EA01111143018470476A
:10412000028B4FF6FF7322F4006203EA0121114370
:104130000183704770B5028C22F480720284028C75
:104140008388848B0D8824F0730425438E894FF671
:10415000FF7422F4007204EA062616434A8804EA31
:1041600002223243104EB04202D0104EB04215D15E
:1041700022F40066CA8923F4405304EA022232433F
:1041800022F480668A8804EA022232430E8A04EA14
:1041900006161E434B8A04EA031333438380858348
:1041A0008968C163028470BD0000014000040140C1
:1041B000028C4FF6FF7322F4007203EA01211143CF
:1041C00001847047828B22F008020A438283704781
:1041D00070B5028C22F480520284058C8288838B15
:1041E0000C8823F4E6464FF6FF7303EA04243443B5
:1041F00025F400568D8903EA053535434E8803EAD8
:1042000006362E43084DA84202D0084DA84205D1DB
:1042100022F480450A8A03EA82122A438280848338
:1042200089680164068470BD0000014000040140FB
:10423000028C4FF6FF7322F4005203EA013111435E
:1042400001847047828B4FF6FF7322F4006203EA09
:10425000012111438183704741627047028B22F034
:104260000C020283028B0A4302837047028B22F402
:1042700040620283028B4FF6FF7303EA01210A4377
:1042800002837047828B22F00C028283828B0A4366
:1042900082837047828B22F440628283828B4FF646
:1042A000FF7303EA01210A438283704730B5028815
:1042B000164C174DA0420DD0A8420BD0B0F1804F44
:1042C00008D0144B984205D0134B984202D0134BA0
:1042D000984203D122F070034A881A43104B984247
:1042E00006D0104B984203D022F440730A891A4337
:1042F00002804A68C2620A880285A04201D0A842B0
:1043000001D1897A01860121818230BD00000140FE
:10431000000401400004004000080040000C004080
:1043200000100040001400404FF0FF3141600021B8
:104330000180018141808172704700000A2809DBF9
:104340000A48D0F8000228B109480078012801D0B5
:1043500000207047074A012000211160121D1160E2
:10436000121D1160121D11607047000000004242D2
:10437000440100203404014070B52E4C40F2255118
:10438000204600F0BBFA00284CD0204600F044FB49
:10439000C1B229480068B0F57A7F43DB284A274C30
:1043A000002590797B29215400D0D8B3401CC0B29D
:1043B00090710B2836D19571A07A7D2832D10021D9
:1043C0000920FCF70FFF617A88422BD11D48224952
:1043D00005701D4805701D4805701D4805701D4875
:1043E0000570012008702179E07800F071FB1B4D09
:1043F00085ED000AA179607900F06AFB184880ED2C
:10440000000A217AE07900F063FB1648164EF0EEC0
:10441000400A0078022807D0217AE07900F058FBA2
:1044200086ED000A002070BD95ED000A00F0FAFA52
:10443000F6E7000000500040B0010020B806002060
:10444000A800002054010020560100205501002042
:104450005701002058010020900100207001002029
:1044600074010020450100207801002070B5324D14
:1044700040F22551284600F041FA002855D000248A
:104480000126284600F0C8FAC1B22C480068B0F5F1
:104490007A7F4ADB2B4B2A4D002218787B2929543E
:1044A00000D0E8B3401CC0B218700B283DD11A7080
:1044B000A87A7D2839D10020295C401C4C4009286D
:1044C000FADB687AA04200D056BB1F48017859B980
:1044D000012101701D4802701D4802701D480270C4
:1044E0001D4802701D4802702979E87800F0F0FA42
:1044F0001B4C84ED000AA979687900F0E9FA1948A3
:1045000080ED000A297AE87900F0E2FA1648174EA1
:10451000F0EE400A0078022809D0297AE87900E014
:1045200003E000F0D5FA86ED000A002070BD94ED9E
:10453000000A00F077FAF6E700100140B001002011
:1045400048060020A800002058010020900100200B
:104550005501002054010020560100205701002081
:104560007001002074010020450100207801002026
:1045700000B5054B0022985C04F0D4F8521CD2B26E
:10458000182AF8D300BD0000860600202DE9F0416E
:1045900040F225512DED048B734800F0AFF900284F
:1045A00072D07148001D008870490968B1F57A7FA2
:1045B0006ADB012100246E4D412810D12A79412A5D
:1045C0000DD16C4A137853B96B4B1C706B4B1C703C
:1045D00011706B4A14706B4A14706B4A1470C3B23A
:1045E0006A4A6B4FDFF8ACC16B4E2B714B2808D079
:1045F000492808D04A2806D036782EB1012E0BD093
:104600001EE031700CE03470A0F14106072E26D96F
:10461000082814DC137013E0432809D047280BD076
:104620003C708CF80040412819D0452817D006E08E
:104630003C708CF8001002E039708CF80040147067
:104640009FED560A564A9FED579A574E58280AD062
:1046500059280DD07B2818D07D281CD00EE0A0F161
:1046600040061670ECE7D6ED000A30EE800A03E053
:10467000D6ED000A30EEC00A86ED000A68780128FF
:1046800004D0022809D060E068E06970A87813546B
:10469000401CA87059E002206870D078502806D0DD
:1046A0005078232848D0A878E87090462AE03F4800
:1046B000017041E0A978081A05F091FC41EC110B5A
:1046C0009FED3B0B00F0B4FBEF78B0EE408A08EBB7
:1046D0000700F0EE608A10F8010C303805F07FFC1E
:1046E00053EC182B05F0E2FC41EC180BA86805F020
:1046F000D3FF53EC182B05F02FFA05F0FBF97F1EC2
:10470000A860EF70E8780428D4D298F80100303817
:10471000032811D2DFE800F002070B0095ED020A32
:1047200086ED000A08E095ED020A234802E095EDC7
:10473000020A224880ED000A6C70AC70EC7085EDC6
:10474000029A32211648FBF708FF96ED000AB5EEF3
:10475000C00AF1EE10FA01D286ED009A0020BDECFD
:10476000048BBDE8F08100000044004008020020F6
:10477000A80000205501002054010020560100200F
:10478000570100205801002090010020590100200D
:104790009101002092010020930100200000C842F6
:1047A0005306002000000000480100209401002072
:1047B00000000000000024404C01002050010020B7
:1047C00070B52D4C40F22551204600F097F8002896
:1047D0004BD0204600F020F9C1B228480068B0F55F
:1047E0007A7F42DB274A264C002550797B292154C9
:1047F00000D0D0B3401CC0B250710B2835D15571D8
:10480000A07A7D2831D100210920FCF7EBFC617AE8
:1048100088422AD11C4805701C4805701C48057048
:104820001C4805701C4805701C4805702179E0780B
:1048300000F04EF91A4D85ED000AA179607900F07B
:1048400047F9184880ED000A217AE07900F040F934
:104850001548164EF0EE400A0078022807D0217A5B
:10486000E07900F035F986ED000A002070BD95ED85
:10487000000A00F0D7F8F6E700480040B001002039
:10488000B8060020A8000020540100205601002096
:104890005501002057010020580100209001002000
:1048A00070010020740100204501002078010020E3
:1048B00000B5054B0022985C03F03CFF521CD2B2BD
:1048C000182AF8D300BD00008606002000B5054B6D
:1048D0000022985C03F038FF521CD2B2182AF8D399
:1048E00000BD0000860600200029818902D041F425
:1048F000005101E021F400518181704770B501F051
:104900001F0501260024C1F3421306FA05F2012B0C
:104910000FD0022B0FD0838A4FEA11210088134257
:1049200006FA01F600EA060001D000B10124204693
:1049300070BD8389F0E7038AEEE710B5C1F3421337
:1049400001F01F040121A140012B07D0022B07D049
:104950001430002A026805D00A4304E00C30F8E75E
:104960001030F6E78A43026010BD00007FB50446B0
:10497000008A0D46C98820F4405001432182A08955
:1049800041F20C618843A9882A8911436A8902434C
:104990001143A181A08A20F44071A8890843A08214
:1049A0006846FEF789FB1A48844202D019488442BF
:1049B00001D1039800E00298A189090400EBC0012D
:1049C00001EB0010296801D5490000E08900B0FB27
:1049D000F1F06422B0FBF2F109010B096FF0180548
:1049E0006B4300EB8300A3891D044FF0320306D50F
:1049F00003EBC000B0FBF2F000F0070005E003EBB2
:104A00000010B0FBF2F000F00F00084320817FBDE2
:104A100000100140001401408088C0F30800704776
:104A2000FEE7000010B52DED048BB0EE608AB0EE0D
:104A3000409ADFED238AB5EEC08AF1EE10FA3CD041
:104A4000B5EEC09AF1EE10FA37D089EE080A01F0FF
:104A50003DFFB4EEE80AF1EE10FA0FD8B5EEC08AC9
:104A6000F1EE10FAB0EE490A02DD01F02FFF03E08B
:104A700001F02CFFB1EE400A80EE288A1148B6EE14
:104A8000001A90ED000A1048C9EE080A40EE010A2B
:104A900090ED001A81EE200A10EE100A05F0FCFDE0
:104AA00041EC100B00F058F851EC100B05F022F817
:104AB00000EE100ABDEC048B10BD9FED040AF9E76F
:104AC0003333B33E84010020880100200000000041
:104AD00070B501EB002004B24FF47A7594FBF5F049
:104AE00005FB10402DED028B05F079FA9FED0B1BB5
:104AF00053EC112B05F0DAFA41EC180B94FBF5F0AE
:104B000005F06DFA53EC182B05F026F804F0F2FFCF
:104B1000BDEC028B00EE100A70BD0000FCA9F1D2C2
:104B20004D62503F03B401984100009850EAC12003
:104B300018BF04204A0D18BF40F0010040F2FF7278
:104B4000B2EB515F08BF40F00200012808BF05200A
:104B500002B070470000000070B59B482DED020BBD
:104B60002DED068B079D25F00044A04218DC9748E8
:104B7000844202DC0AD1069840B19DED060BBDECE3
:104B8000068B02B0BDE8704001F052BC002DCCBFD6
:104B90009FED8F0B9FED900BBDEC068B02B070BDAF
:104BA0008F48A04215DD8F48A042D8BF4FF0FF3498
:104BB00058DD9DED060B51EC100BFFF7B3FF0428F9
:104BC00008BF01F069FC9DED060BBDEC068B02B041
:104BD00070BD9DED060B51EC100B01F06BFECDE9A5
:104BE000060181489FED828BA0423CDD8248A042B5
:104BF0001FDD00249FED82AB9DED060B53EC1A2BBD
:104C000051EC100B04F0A8FF9DED060B41EC190BC5
:104C100053EC1A2B51EC100B05F048FA53EC182BFF
:104C200005F050FC53EC192B05F052F8CDE90601C4
:104C300049E09DED060B012453EC182B51EC100BB1
:104C400004F08AFF9DED060B41EC190B53EC182B79
:104C500051EC100B05F036FC53EC192B05F038F82D
:104C6000CDE906012FE06848A0421FDD02249FED38
:104C7000689B9DED060B53EC192B51EC100B05F0C6
:104C800015FA53EC182B04F067FF9DED060B41EC71
:104C9000180B53EC192B51EC100B05F013FC53ECD3
:104CA000182B05F015F8CDE906010CE09DED060B7B
:104CB000032453EC102B9FED580B51EC100B05F017
:104CC00007F8CDE906019DED060B53EC102B51ECD6
:104CD000100B05F0EBF941EC180B53EC182B05F019
:104CE000E5F941EC190B4E480621B0EE490AF0EE09
:104CF000690A784401F060F953EC182B51EC100B61
:104D000005F0D4F941EC180B4648B0EE490AF0EE34
:104D1000690A0521784401F04FF953EC192B51EC45
:104D2000100B05F0C3F941EC100B51EC180B53ECD0
:104D3000102B002C0EDA04F00FFF9DED061B53EC38
:104D4000112B05F0B3F99DED061B53EC112B05F06B
:104D5000E1FA35E004F000FF9DED061B53EC112B4A
:104D600005F0A4F941EC100B2F48784400EBC40087
:104D700090ED001B51EC100B53EC112B05F0A2FB36
:104D80009DED061B53EC112B05F09CFB41EC100B29
:104D90002648784400EBC40090ED001B51EC100B4A
:104DA00053EC112B05F0B6FA41EC100B002DA2BF0D
:104DB000BDEC068B02B070BD51EC100B04F08EFE02
:104DC00041EC100B01E70000000010440000F07FF0
:104DD000182D4454FB21F93F182D4454FB21F9BFF1
:104DE0000000DC3F0000203E0000F33F0000000018
:104DF000000000000000F03F0000E63F000000005F
:104E0000000000000000004000800340000000009F
:104E1000000000000000F83F000000000000F0BFAC
:104E20009A70000050700000DA6F0000926F00006E
:104E30002DE9F04D2DED040B2DED0E8B96B0DDE937
:104E40002550279CDDF890A025F0004624F000486E
:104E5000BAF1000F14BF0121002101EB4502FC490A
:104E600053184A1093422AD3002814BF0123002369
:104E700003EB44030B44F7498B4220D358EA00016B
:104E80009FEDF59B76D0DFF8D8B35D4503D1BAF13D
:104E9000000F05D188E0BAF1000F08BF002100D053
:104EA000012101EB450111F5001F08D8002814BFAE
:104EB0000121002101EB440111F5001F0BD99DEDEB
:104EC000261B9DED240B16B0BDEC0E8B04B0BDE887
:104ED000F04D01F0B7BA0027002DBCBFE14988456D
:104EE00021DAE1498845A8BF02271CDAC3451ADC4C
:104EF000DE4901EB2851142908DDC1F1340220FA02
:104F000002F101FA02F282420DD108E058B9C1F172
:104F1000140228FA02F101FA02F2424503D101F02B
:104F20000101C1F1020756EA0A0124D1002C22DA5C
:104F3000002D18BF022F01D0012F0AD00220FBF74D
:104F400037FB16B0BDEC0E8B04B0BDE8F04D01F0A0
:104F500057BA0220FBF72CFB01F052FA51EC100B70
:104F600004F0BCFD41EC100B16B0BDEC0E8B04B090
:104F7000BDE8F08D18E09FEDBEAB9FEDBF8B002824
:104F800071D1B848804522D105F1804010F58010DC
:104F900008BFBAF1000F07D0B3450ADC002CA8BF48
:104FA0009DED260BE0DA0DE0B0EE490AF0EE690A5D
:104FB000DAE7002C06DA9DED260B51EC100B04F01D
:104FC0008DFD6FE0AE48784490ED000BCCE7D845FE
:104FD0004DD1002C48DA2EB186423AD1BAF1000FF9
:104FE00042D126E0BAF1000F13D00220FBF7E0FA1D
:104FF00001F042FA8DED020B9DED240B8DED000BBF
:1050000010EE900A039961F31E0003909DED020BD0
:10501000AAE78DED02AB9DED240B1AEE901A10EE6F
:10502000900A8DED000B61F31E0003909DED020BC5
:105030009AE78DED028B9DED240B18EE901A10EE81
:10504000900A8DED000B61F31E0003909DED020BA5
:105050008AE709DA9DED240B51EC190B53EC102B68
:1050600004F036FE1EE020E09DED240B7CE7864236
:105070001BDAB4F1804F0DD0A4F10050B0F1FF5015
:1050800013D1002D11DB9DED240B51EC100B03F01F
:10509000BBF807E09DED240B53EC102B51EC100BEB
:1050A00000F0C2BC41EC100B5EE79DED240B51EC0F
:1050B000100B01F0FFFBBAF1000FCDE90E0142D158
:1050C0009FED710B46B3A6F1E040B0F17F600CD0CC
:1050D0005E4538D1002D00DAA7B3022F0CBF0120A6
:1050E0004FF0FF3004F07BFFDCE7002D01DD002CEA
:1050F0000DDA002D01DD002C1FDB002D16DA002C4F
:1051000014DB012F08BF9FED620B3FF42DAFB0EE13
:105110004A0AF0EE6A0A27E7022F18BF002D0CD0CA
:10512000012F0AD1002DFFF61FAF06E0002DB8BFFA
:10513000002C08DA012F3FF417AFB0EE480AF0EE6A
:10514000680A11E71BE0012000EBE57050EA070157
:1051500015D0791EB0EE498AF0EE698A084308BF7F
:105160009FED4D8B4E480025804570DD4D494E48E2
:10517000884514DDB0420DDB002C19DB2FE0012047
:10518000FBF716FA16B0BDEC0E8B04B0BDE8F04D7F
:1051900001F062B9B34502DC002C09DC1FE0864255
:1051A00002DA002C1BDA03E05E452BDD002C16DD55
:1051B0000220FBF7FDF901F05FF98DED020B53ECD6
:1051C0001A2B51EC180B04F071FFCDE90001039983
:1051D000019861F31E0003909DED020BC4E60220CE
:1051E000FBF7E6F901F058F910EE901A18EE900A64
:1051F0008DED020B8DED008B61F31E0003909DED94
:10520000020BB1E69DED0E0B53EC192B51EC100B7C
:1052100005F058F99FED260BCDE9080153EC102B52
:105220009DED080B51EC100B04F040FF9FED221B8D
:1052300053EC112B05F06EF89DED081B53EC112B70
:1052400004F034FF9FED1E1B53EC112B3CE08CE06F
:10525000FFFF1F00FFFF0F00000000000000F03FF5
:105260000000F03F0000F07F0000404301FCFFFF22
:10527000000000000000F07F0000000000000000BF
:105280007E6E0000000000000000000000000080B2
:10529000000000000000F0FF000000000000F0BF70
:1052A0000000E0410000F043FFFFEF3F000000007E
:1052B000000000000000D03F555555555555D53FCD
:1052C000000000000000E03F05F024F89DED080B11
:1052D00041EC1A0B53EC102B51EC100B04F0E6FED2
:1052E00053EC1A2B04F0E2FE41EC1A0B9FEDFE0B7F
:1052F00053EC102B9DED080B51EC100B04F0D6FE77
:1053000041EC1B0B9FEDFA0B51EC1A0B53EC102BDD
:1053100004F0CCFE41EC1A0B9FEDF70B53EC102B75
:105320009DED080B51EC100B04F0C0FE53EC1A2B52
:1053300005F0C8F841EC1A0B51EC1B0B53EC1A2B7F
:1053400004F00AFC0690CDE906519DED060B53ECE6
:105350001B2B51EC100B05F0B5F853EC1A2B04F095
:10536000D9FF41EC100B00F0A1B90020B6F5801F69
:105370000EDA9FEDE30B53EC102B9DED0E0B51EC71
:10538000100B04F093FECDE90E016FF034000E46D1
:1053900000EB2650A0F2FF37C6F31300DA4940F0C5
:1053A0007F6646F040568842D8BF002408DDD749C2
:1053B0008142C8BF012403DC0024A6F580167F1CAF
:1053C000D348784400EBC4000F9690ED00CB9DEDE0
:1053D0000E0B53EC1C2B51EC100B05F073F89DEDEC
:1053E0000E0B41EC1B0B53EC1C2B51EC100B04F07F
:1053F000B3FB41EC100B51EC190B53EC102B04F0E8
:1054000067FC41EC1D0B51EC1B0B53EC1D2B04F006
:105410004DFE41EC1A0BBF488DED10AB7844109552
:1054200090ED000B4FF0005040EA660000EB844026
:105430008DED080B00F5002009909DED080B53EC55
:105440001C2B51EC100B05F03DF89DED0E1B53ECA1
:10545000112B04F05FFF41EC100B53EC102B9DED72
:10546000100B51EC100B04F021FE9DED080B41ECEC
:105470001C0B53EC102B9DED100B51EC100B04F09A
:1054800015FE53EC1B2B04F045FF53EC1C2B05F0D1
:1054900019F853EC1D2B04F009FE41EC1C0B53ECE6
:1054A0001A2B51EC1A0B04F001FE41EC1B0B9A482D
:1054B0000621B0EE4B0AF0EE6B0A784400F07CFD5A
:1054C000B0EE401AF0EE601AB0EE41DAF0EE61DABA
:1054D00053EC1B2B51EC1B0B04F0E8FD53EC1D2B84
:1054E00004F0E4FD9DED100B41EC1B0B53EC1A2B6B
:1054F00051EC100B04F030FB53EC1C2B04F0D6FDE8
:1055000053EC1B2B04F028FB9DED100B41EC1B0B07
:1055100053EC102B51EC100B04F0C8FD41EC1D0BAB
:105520009FED7FEB53EC1E2B04F016FB53EC1B2B73
:1055300004F012FB0890CDE908519DED080B53ECE7
:105540001E2B51EC100B04F0BDFF53EC1D2B04F08F
:10555000B9FF53EC1B2B04F0DDFE9DED080B41EC75
:105560001D0B53EC102B9DED100B51EC100B04F0A8
:105570009DFD41EC1B0B53EC1A2B51EC1D0B04F061
:1055800095FD9DED080B41EC1A0B53EC102B51ECE3
:105590001C0B04F08BFD53EC1A2B04F0DDFA41ECEC
:1055A0001A0B51EC1B0B53EC1A2B04F0D5FA0C9090
:1055B000CDE90C519DED0C0B53EC1B2B51EC100B5A
:1055C00004F080FF53EC1A2B04F0A4FE41EC1B0BFB
:1055D0009FED550B53EC102B9DED0C0B51EC100B6C
:1055E00004F064FD41EC1A0B9FED510B51EC1B0BC9
:1055F00053EC102B04F05AFD41EC1B0B9FED4E0BAE
:1056000053EC102B9DED0C0B51EC100B04F04EFDE8
:1056100053EC1B2B04F0A0FA41EC100B48487844E3
:1056200000EBC40090ED001B51EC100B53EC112B60
:1056300004F092FA41EC1B0B384604F0D0FCCDE9A3
:10564000080153EC1B2B51EC1A0B04F085FA41ECCA
:10565000100B3C48784400EBC40090ED00CB51ECBB
:10566000100B53EC1C2B04F077FA9DED081B53EC48
:10567000112B04F071FA0690CDE906519DED080B4F
:1056800053EC102B9DED060B51EC100B04F01AFFA0
:1056900053EC1C2B04F016FF53EC1A2B04F012FFF2
:1056A00053EC1B2B04F036FE41EC100B9DED261B3A
:1056B00053EC102B8DED001B00959DED260B51EC4E
:1056C000100B04F0F3FC9DED000B41EC1A0B53ECB6
:1056D000102B9DED260B51EC100B04F0F3FE9DED0D
:1056E000061B53EC112B2FE0000000604715F73F1D
:1056F000FE822B654715F73F44DF5DF80BAE543E45
:1057000000000000000040438E9803007AB60B00B2
:10571000FA690000286A00003269000000000000F9
:105720000000000000000840000000E009C7EE3F54
:10573000FD033ADC09C7EE3FF5015B14E02F3EBEE6
:10574000BE6700007867000004F0B0FC53EC1A2B31
:1057500004F002FA9DED060B41EC1A0B53EC102BF2
:105760009DED000B51EC100B04F0A0FCCDE90C01F9
:105770009DED0C0B51EC1A0B53EC102B04F0ECF9D3
:10578000CDE902010C46AA498C422FDB611A08437D
:1057900018D19DED0C0B53EC102B9DED020B51EC31
:1057A000100B04F08FFE41EC1B0B9FEDA30B51EC93
:1057B0001A0B53EC102B04F0CFF953EC1B2B04F015
:1057C00073FD2DD20220FAF7F3FE00F055FE10EE25
:1057D000901A18EE900A8DED020B8DED008B61F39F
:1057E0001E0003909DED020BFFF7BEBB944A24F010
:1057F0000041914214D39349214408437FF4EFAC14
:105800009DED0C0B53EC102B9DED020B51EC100B8E
:1058100004F058FE53EC1A2B04F046FD7FF6DFAC83
:1058200024F000408849894A002601EB2051824239
:105830002BDA481C4FF4801121FA00F02044844AEE
:10584000C0F30A517A44A1F2FF3192ED000B814A74
:105850008DED080BCA4020EA0202C0F3130040F4A9
:105860008010C1F1140120FA01F60992002CB8BF92
:1058700076429DED080B53EC102B9DED0C0B51EC7B
:10588000100B04F01FFECDE90C019DED0C0B51EC4B
:105890001A0B53EC102B04F05FF99FED6F0B08907F
:1058A000CDE9085153EC102B9DED080B51EC100B7A
:1058B00004F0FCFB41EC1B0B9FED690B53EC102B30
:1058C0009DED080B51EC100B04F0F0FB9DED0C0B63
:1058D00041EC1C0B53EC102B9DED080B51EC100B05
:1058E00004F0F0FD53EC1A2B04F014FD9FED5E1B49
:1058F00053EC112B04F0DAFB53EC1C2B04F02CF9C5
:1059000041EC1A0B51EC1B0B53EC1A2B04F024F94D
:10591000CDE902019DED020B53EC1B2B51EC100B5A
:1059200004F0D0FD53EC1A2B04F0F4FC9DED020BB7
:1059300041EC1A0B53EC102B51EC100B04F0B6FB9E
:10594000CDE908014A489DED080B0521784400F097
:1059500033FB9DED081B51EC100B53EC112B04F0A5
:10596000A5FB9DED021B53EC112B04F0D3FCCDE9FC
:1059700006019DED020B53EC1A2B51EC100B04F0B9
:1059800095FB53EC1A2B04F0E7F89FED3B0B41EC31
:105990001A0B53EC102B9DED060B51EC100B04F081
:1059A00091FD9DED060B41EC1B0B53EC102B9DED77
:1059B000020B51EC100B04F079FB53EC1B2B04F0A1
:1059C00087F953EC1A2B04F07DFD9DED021B53EC7F
:1059D000112B04F077FD53EC192B04F09BFCCDE95F
:1059E000020101EB065001150029C8BF039015DC28
:1059F0009DED020B324651EC100B04F0FAFEFFF75E
:105A000091F8042808BF00F047FD32469DED020BD7
:105A100051EC100B04F0EDFECDE902019DED020BFF
:105A200051EC180B53EC102B04F040FBFFF73ABB82
:105A30000000904000000000FE822B654715973C57
:105A400000CC904000346F3F01FCFFFF0000E03FBE
:105A500000660000FFFF0F0000000000432EE63F3D
:105A6000396CA80C615C20BEEF39FAFE422EE63F8D
:105A7000D0640000000000000000000000000040B2
:105A800000B52DED048BB0EE409AF0EE609A83B035
:105A900051EC190B04F04AFC41EC180B18EE100AFB
:105AA00018EE901A8DED008B002818BF01200843D6
:105AB00020F00040C0F17F6000F1E040C00F14D042
:105AC00019EE101A19EE900A8DED009B002918BFEF
:105AD0000121084320F00040C0F17F6000F1E04068
